:100000002FC000009AC2000098C2000096C20000F3
:1000100094C2000092C2000090C200008EC2000094
:100020008CC200008AC2000089C2000086C20000A3
:1000300084C2000082C2000080C200007EC20000B4
:100040007CC200007AC2000078C2000076C20000C4
:1000500074C20000006000690005C600690070807D
:1000600011241FBECFE5D8E0DEBFCDBFE4E5F0E050
:1000700040E017C0B591A59135912591059107FDF7
:100080000CC095918591EF01F92FE82F05900D9205
:10009000A217B307D9F7FE0104C01D92A217B30738
:1000A000E1F7E036F40731F70AD002C0F894FFCF49
:0E00B000EC010DD009D0CE0108D0CE0107D052
:0A00BE003AD007D016D025D0FCCFB1
:0200C800089599
:0200CA00089597
:0200CC00EFDF64
:0200CE00089593
:1000D00060E080E04CD080916D00811108C0D89A1A
:1000E00080ED97E037D080916D008823C1F30895AB
:1000F00060E080E03CD080916D00813041F4DB9A7B
:1001000080ED97E027D080916D008130C1F3089594
:1001100060E080E02CD080916D00823041F4DE9A66
:1001200080ED97E017D080916D008230C1F310927E
:040130006D000895C1
:1001340063E670E080E836D062E670E080E825D0BF
:1001440061E670E080E821D060E670E080E81DC0E0
:1001540029B7226029BF23B7236023BF90936F0080
:0A01640080936E008DE78CBF0895B4
:10016E00813061F048F0823019F0833019F0089533
:10017E0065BB089562BB08956BBB089568BB089577
:10018E00CF92DF92EF926B01E82E20D140E08E2DC0
:0A019E00B601EF90DF90CF906AC029
:1001A800CF92DF92EF929B01482FA82FCB010296A6
:1001B800A11DFC018491A7FD80818370813009F421
:1001C80052C008F449C0823009F43FC0833031F48A
:1001D80083B7806483BF83B7886083BF93B769019F
:1001E800E42E63E0C60ED11CE11CF6018491E7FC05
:1001F8008081892B83BF53B76901E42E84E0C80E40
:10020800D11CE11CF6019491E7FC9081937060E1A8
:10021800969FC0011124852B83BFA42FC901059681
:10022800A11DFC018491A7FD80818CBF789489B7BA
:10023800826089BFF901542F74D170936A0060936A
:100248006900EF90DF90CF90089583B78F7B83BFCD
:1002580083B7886083BFC2CF83B78F7B83BF83B7E1
:10026800877F83BFBBCF83B7806483BF83B7877F14
:0402780083BFB4CFBD
:10027C00442329F1413011F5FB01949187FD9081C4
:10028C00892F8770813009F491C008F47EC08230C8
:10029C00B1F1833009F468C0089542B396959695F0
:1002AC009695977021E030E0B90102C0660F771F78
:1002BC009A95E2F7CB018095842382BB0895FB01CC
:1002CC00949187FD9081892F87708130D9F140F10D
:1002DC00823019F0833009F3089545B396959695BD
:1002EC009695977021E030E0B90102C0660F771F38
:1002FC009A95E2F7CB018095842385BB089545B38D
:10030C00969596959695977021E030E0B90102C0CC
:10031C00660F771F9A95E2F7CB01842B85BB089566
:10032C004BB3969596959695977021E030E0B90170
:10033C0002C0660F771F9A95E2F7CB018095842354
:10034C008BBB089548B3969596959695977021E03A
:10035C0030E0B90102C0660F771F9A95E2F7CB0126
:10036C008095842388BB089542B39695969596956F
:10037C00977021E030E0B90102C0660F771F9A95A3
:10038C00E2F7CB01842B82BB08954BB396959695DF
:10039C009695977021E030E0B90102C0660F771F87
:1003AC009A95E2F7CB01842B8BBB089548B39695B5
:1003BC0096959695977021E030E0B90102C0660FD2
:0E03CC00771F9A95E2F7CB01842B88BB08952A
:1003DA00FB01949187FD9081892F877096FF1AC03F
:1003EA008130A9F108F467C0823009F453C0833020
:1003FA0061F541B3969596959695977021E030E010
:10040A00B90102C0660F771F9A95E2F7CB01842BD8
:10041A0081BB0895813061F108F470C0823009F41B
:10042A005BC0833099F441B39695969596959770EB
:10043A0021E030E0B90102C0660F771F9A95E2F712
:10044A00CB018095842381BB08950895089547B30D
:10045A00969596959695977021E030E0B90102C07D
:10046A00660F771F9A95E2F7CB01842B87BB089515
:10047A0047B3969596959695977021E030E0B90125
:10048A0002C0660F771F9A95E2F7CB018095842305
:10049A0087BB089544B3969596959695977021E0F3
:1004AA0030E0B90102C0660F771F9A95E2F7CB01D7
:1004BA00842B84BB08954AB3969596959695977022
:1004CA0021E030E0B90102C0660F771F9A95E2F782
:1004DA00CB01842B8ABB089544B39695969596953D
:1004EA00977021E030E0B90102C0660F771F9A9534
:1004FA00E2F7CB018095842384BB08954AB396958D
:10050A0096959695977021E030E0B90102C0660F82
:10051A00771F9A95E2F7CB01809584238ABB0895C9
:10052A0057FD03C065917591089561917191089580
:02053A0062CD90
:10053C001F920F920FB60F9211242F933F934F934C
:10054C005F936F937F938F939F93AF93BF93EF932F
:10055C00FF93E0916900F0916A000995FF91EF918A
:10056C00BF91AF919F918F917F916F915F914F91BF
:0E057C003F912F910F900FBE0F901F9018957A
:10058A0080916B0090916C00019690936C0080931F
:10059A006B0020916E0030916F008217930709F06B
:1005AA00089510926C0010926B0080916D008F5F1D
:0C05BA0080936D0089B78D7F89BF089584
:0105C60070C4
:0105C70058DB
:0105C80040F2
:0605C900C5020201007DE5
:00000001FF
