:100000000C9436000C9433030C9433030C94330398
:100010000C9433030C9433030C9433030C94330388
:100020000C9433030C9433030C945B020C94330351
:100030000C9433030C9433030C9433030C94330368
:100040000C9433030C9433030C9433030C94330358
:100050000C943303006000660006780066006C8034
:10006000006C006F00067E006F00708011241FBEC0
:10007000CFE5D8E0DEBFCDBFE4E5F0E040E017C05B
:10008000B591A59135912591059107FD0CC09591EC
:100090008591EF01F92FE82F05900D92A217B30774
:1000A000D9F7FE0104C01D92A217B307E1F7EC36A1
:1000B000F40731F70E9422030C941703F894FFCF42
:1000C000E62FF72F949187FD908196FF5FC0E62F72
:1000D000F72F949187FD908197709130D9F030F08F
:1000E000923061F1933009F43DC008953AB3E62FA0
:1000F000F72F249187FD2081269526952695277038
:1001000081E090E002C0880F991F2A95E2F7832BC7
:100110008ABB089537B3E62FF72F249187FD2081FE
:10012000269526952695277081E090E002C0880FDD
:10013000991F2A95E2F7832B87BB089534B3E62FE6
:10014000F72F249187FD20812695269526952770E7
:1001500081E090E002C0880F991F2A95E2F7832B77
:1001600084BB089531B3E62FF72F249187FD2081BA
:10017000269526952695277081E090E002C0880F8D
:10018000991F2A95E2F7832B81BB0895E62FF72F5D
:10019000949187FD908197709130E1F030F092302A
:1001A00071F1933009F440C008953AB3E62FF72F68
:1001B000249187FD2081269526952695277081E03C
:1001C00090E002C0880F991F2A95E2F7809583235B
:1001D0008ABB089537B3E62FF72F249187FD20813E
:1001E000269526952695277081E090E002C0880F1D
:1001F000991F2A95E2F78095832387BB089534B32E
:10020000E62FF72F249187FD2081269526952695A8
:10021000277081E090E002C0880F991F2A95E2F7CD
:100220008095832384BB089531B3E62FF72F249163
:1002300087FD2081269526952695277081E090E000
:1002400002C0880F991F2A95E2F78095832381BB0E
:0202500008950F
:10025200442309F462C0413009F0C1C0E62FF72FF0
:10026200949187FD908197709130D9F030F092305F
:1002720061F1933009F43DC008953BB3E62FF72FA7
:10028200249187FD2081269526952695277081E069
:1002920090E002C0880F991F2A95E2F7832B8BBB4F
:1002A200089538B3E62FF72F249187FD20812695F4
:1002B20026952695277081E090E002C0880F991F4D
:1002C2002A95E2F7832B88BB089535B3E62FF72FE3
:1002D200249187FD2081269526952695277081E019
:1002E20090E002C0880F991F2A95E2F7832B85BB05
:1002F200089532B3E62FF72F249187FD20812695AA
:1003020026952695277081E090E002C0880F991FFC
:100312002A95E2F7832B82BB0895E62FF72F94915B
:1003220087FD908197709130E1F030F0923071F159
:10033200933009F440C008953BB3E62FF72F249180
:1003420087FD2081269526952695277081E090E0ED
:1003520002C0880F991F2A95E2F7809583238BBBF1
:10036200089538B3E62FF72F249187FD2081269533
:1003720026952695277081E090E002C0880F991F8C
:100382002A95E2F78095832388BB089535B3E62F3B
:10039200F72F249187FD2081269526952695277093
:1003A20081E090E002C0880F991F2A95E2F78095BC
:1003B200832385BB089532B3E62FF72F249187FD5F
:1003C2002081269526952695277081E090E002C02F
:1003D200880F991F2A95E2F78095832382BB08959F
:1003E200CF92DF92EF926B01E82E0E942E0293B71A
:1003F2004E2D96012D5F3F4F4F4FF901849147FDDE
:100402008081892B83BF53B74E2D96012C5F3F4FBE
:100412004F4FF901949147FD9081937020E1929F93
:10042200C0011124852B83BFAE2DC6010596A11DE7
:10043200FC018491A7FD80818CBF789489B782608A
:1004420089BFF6015E2D0E942B03709367006093B3
:0A0452006600EF90DF90CF90089550
:10045C00A82FCB010296A11DFC018491A7FD8081E0
:10046C008370813069F028F0823089F08330B1F0EC
:10047C00089583B78F7B83BF83B7877F83BF08952E
:10048C0083B7806483BF83B7877F83BF089583B7A7
:10049C008F7B83BF83B7886083BF089583B78064E5
:0A04AC0083BF83B7886083BF089503
:1004B6001F920F920FB60F9211242F933F934F93D3
:1004C6005F936F937F938F939F93AF93BF93EF93B6
:1004D600FF93E0916600F09167000995FF91EF9117
:1004E600BF91AF919F918F917F916F915F914F9146
:0E04F6003F912F910F900FBE0F901F90189501
:1005040080916800909169000196909369008093AE
:10051400680020916A0030916B008217930761F4A0
:10052400109269001092680080916F008F5F809331
:0A0534006F0089B78D7F89BF08951D
:10053E0060E670E080E80E94F1016EE670E080E80F
:10054E000E94E9026DE670E080E80E94E9026CE626
:0A055E0070E080E80E94E9020895B1
:1005680060E080E00E94F90207C08BB380648BBB17
:1005780080ED97E00E94090380916F008230A9F313
:0605880010926F000895BF
:10058E0060E080E00E94F90207C08BB381608BBBF4
:10059E0080ED97E00E94090380916F008823A9F3F4
:0205AE000895AE
:1005B00060E080E00E94F90207C08BB388608BBBCB
:1005C00080ED97E00E94090380916F008130A9F3CC
:0205D00008958C
:1005D200CF92DF92EF926B01E82E0E94600040E022
:1005E2008E2DB6010E942901EF90DF90CF900895E1
:1005F200813041F028F0823039F0833039F00895AB
:100602006BBB089568BB089565BB089562BB0895EE
:1006120029B7226029BF23B7236023BF90936B00C1
:0C06220080936A008DE70E943503089564
:10062E00EC010E943A030E943903CE010E943B0363
:06063E00CE010E9437030B
:100644000E949F020E94C7020E94D8020E94B40224
:02065400F9CFDC
:1006560057FD03C065917591089561917191089553
:040666000C940000F0
:04066A008CBF0895A4
:04066E000E945E0088
:020672000895E9
:020674000895E7
:020676000895E5
:0606780082020201007D78
:01067E00700B
:01067F005822
:010680004039
:00000001FF
